:100000000C9462000C948A000C948A000C948A0070
:100010000C948A000C948A000C948A000C948A0038
:100020000C948A000C948A000C94C3030C948A03E9
:100030000C9451030C948A000C948A000C948A004E
:100040000C9407030C948A000C94D5020C94AF0214
:100050000C948A000C948A000C948A000C948A00F8
:100060000C948A000C948A000000000023002600F3
:10007000290000000008000201000003040700003E
:1000800000000000000000000000250028002B00F8
:1000900000000000240027002A00040404040404D3
:1000A0000404020202020202030303030303010227
:1000B00004081020408001020408102001020408F6
:1000C0001020390611241FBECFEFD8E0DEBFCDBF10
:1000D00011E0A0E0B1E0EEEEF4E102C005900D9277
:1000E000AC39B107D9F723E0ACE9B1E001C01D920A
:1000F000A93AB207E1F710E0C2E6D0E004C02197C8
:10010000FE010E949707C136D107C9F70E94A704D4
:100110000C94750A0C940000FC016191719130E01F
:1001200020E041E050E0A191B1916A177B0714F4FF
:10013000BD019A014F5F5F4F4A305105A1F7220F71
:10014000331F820F931FFC01808191810895FC0170
:100150006191719130E020E041E050E0A191B191D6
:10016000A617B70714F4BD019A014F5F5F4F4530E2
:100170005105A1F7220F331F820F931FFC018081CD
:1001800091810895AF92BF92CF92DF92EF92FF924A
:100190000F931F93CF93DF936C017B018B01040FAF
:1001A000151FEB015E01AE18BF08C017D10759F04B
:1001B0006991D601ED91FC910190F081E02DC6018D
:1001C0000995892B79F7C501DF91CF911F910F9187
:1001D000FF90EF90DF90CF90BF90AF900895FC011B
:1001E000538D448D252F30E0842F90E0821B930B9C
:1001F000541710F0CF96089501970895FC01918D42
:10020000828D981761F0A28DAE0FBF2FB11D5D9644
:100210008C91928D9F5F9F73928F90E008958FEFE6
:100220009FEF0895FC01918D828D981731F0828D9A
:10023000E80FF11D858D90E008958FEF9FEF0895F1
:10024000FC01918D228D892F90E0805C9F4F821B55
:1002500091098F73992708958CE093E00E94200103
:1002600021E0892B09F420E0822F089580E090E0BE
:10027000892B29F00E942C0181110C940000089513
:10028000FC01A48DA80FB92FB11DA35ABF4F2C910B
:10029000848D90E001968F739927848FA689B78902
:1002A0002C93A089B1898C91837080648C93938DF9
:1002B000848D981306C00288F389E02D80818F7D9C
:1002C00080830895EF92FF920F931F93CF93DF9354
:1002D000EC0181E0888F9B8D8C8D98131AC0E88982
:1002E000F989808185FF15C09FB7F894EE89FF8951
:1002F0006083E889F98980818370806480839FBFEF
:1003000081E090E0DF91CF911F910F91FF90EF90EE
:100310000895F62E0B8D10E00F5F1F4F0F731127FE
:10032000E02E8C8D8E110CC00FB607FCFACFE88939
:10033000F989808185FFF5CFCE010E944001F1CF80
:10034000EB8DEC0FFD2FF11DE35AFF4FF0829FB7AD
:10035000F8940B8FEA89FB8980818062CFCFCF939D
:10036000DF93EC01888D8823B9F0AA89BB89E889DD
:10037000F9898C9185FD03C0808186FD0DC00FB683
:1003800007FCF7CF8C9185FFF2CF808185FFEDCF01
:10039000CE010E944001E9CFDF91CF9108958330D3
:1003A00081F028F4813099F08230A9F008958730E7
:1003B000A9F08830C9F08430B1F4809180008F7D3D
:1003C00003C0809180008F7780938000089584B56A
:1003D0008F7784BD089584B58F7DFBCF8091B00069
:1003E0008F778093B00008958091B0008F7DF9CF12
:1003F000CF93DF93282F30E0F901EE58FF4F84911F
:10040000F901E255FF4FD491F901E656FF4FC4912F
:10041000CC23A1F081110E94CF01EC2FF0E0EE0F70
:10042000FF1FE859FF4FA591B491EC91ED2381E0B6
:1004300090E009F480E0DF91CF91089580E090E0B2
:10044000FACF1F93CF93DF93282F30E0F901EE58B6
:10045000FF4F8491F901E255FF4FD491F901E6561F
:10046000FF4FC491CC23A9F0162F81110E94CF0118
:10047000EC2FF0E0EE0FFF1FEA57FF4FA591B4916C
:100480008FB7F894EC91111108C0D095DE23DC935E
:100490008FBFDF91CF911F910895DE2BF8CFFC0124
:1004A00001900020E9F73197AF01481B590BBC01BF
:1004B0008CE093E00C94C2000F931F93CF93DF93D3
:1004C000182FEB0160E00E94210283E090E0019789
:1004D000F1F761E0812F0E94210283E290E0019711
:1004E000F1F760E0812F0E942102FE01E255FF4FEB
:1004F0006491FE01E656FF4FE491F0E0EE0FFF1F1E
:10050000E859FF4F8591949100E412E42FE030E028
:10051000462F0E946204611571058105910529F03D
:100520006F5F7F4F8F4F9F4F9F70072E000C880B80
:10053000990B0E949E0626E933E44BE05DE30E949E
:10054000020720E030E040E05FE30E9402070E94E3
:100550006606CB01DF91CF911F910F9108951F92F5
:100560000F920FB60F9211242F933F934F935F93E7
:100570006F937F938F939F93AF93BF93EF93FF936B
:100580008CE093E00E944001FF91EF91BF91AF9109
:100590009F918F917F916F915F914F913F912F919B
:1005A0000F900FBE0F901F9018951F920F920FB6CD
:1005B0000F9211242F938F939F93EF93FF93E091CA
:1005C0001C03F0911D038081E0912203F09123032D
:1005D00082FD1BC09081809125038F5F8F732091D6
:1005E0002603821741F0E0912503F0E0E45FFC4F21
:1005F000958F80932503FF91EF919F918F912F917C
:100600000F900FBE0F901F9018958081F4CF1F920E
:100610000F920FB60F9211242F933F938F939F93B6
:10062000AF93BF938091B1019091B201A091B301BA
:10063000B091B4013091B00123E0230F2D3758F56C
:100640000196A11DB11D2093B0018093B10190933B
:10065000B201A093B301B093B4018091AC01909129
:10066000AD01A091AE01B091AF010196A11DB11DE8
:100670008093AC019093AD01A093AE01B093AF0114
:10068000BF91AF919F918F913F912F910F900FBE8E
:100690000F901F90189526E8230F0296A11DB11DFB
:1006A000D2CF1F920F920FB60F9211242F933F9328
:1006B0008F939F9380916F008B7F80936F008091C9
:1006C00080008F7E809380008091A8019091A90185
:1006D0002091AA013091AB01820F931F90938B0060
:1006E00080938A00809184009091850020918A00F7
:1006F00030918B00821B930B97FD03C080E48093A5
:1007000082009F918F913F912F910F900FBE0F907C
:100710001F9018951F920F920FB60F9211242F93CE
:100720003F938F939F9380916F008D7F80936F0095
:10073000809180008F7B809380008091A6019091B2
:10074000A7012091AA013091AB01820F931F9093D2
:100750008900809388008091840090918500209189
:10076000880030918900821B930B97FD03C080E8BD
:10077000809382009F918F913F912F910F900FBE98
:100780000F901F9018951F920F920FB60F92112481
:100790002F933F934F935F938F939F9380916F001D
:1007A000897F80936F00809180008F7A8093800092
:1007B00080EC809382008091860090918700209148
:1007C000A4013091A501820F931F9093890080931B
:1007D000880080918600909187002091A20130913D
:1007E000A301820F931F90938B0080938A008091C6
:1007F000A0019091A1019093A7018093A6018091FF
:100800009E0190919F019093A9018093A8018091EE
:100810009D01811154C080E020919C0140E0222381
:1008200011F040E350E020918000842B822B8093D4
:10083000800086E086BB80916F00866080936F00A9
:1008400080918600909187002091AA013091AB01A0
:10085000821B930B9093010180930001809186008D
:10086000909187009093AB018093AA0180918400BE
:10087000909185002091880030918900821B930B14
:1008800097FD03C080E8809382008091840090915E
:10089000850020918A0030918B00821B930B97FD7D
:1008A00003C080E4809382009F918F915F914F916C
:1008B0003F912F910F900FBE0F901F90189580ECD5
:1008C00090E0AACFCF92DF92EF92FF920F931F9307
:1008D000E82FF92F05C0015011092109310961F1F3
:1008E000908196239417B9F305C00150110921098D
:1008F000310911F1908196239413F7CFC12CD12C9B
:10090000E12CF12C0AC08FEFC81AD80AE80AF80ABD
:100910000C151D052E053F0579F08081862384176F
:1009200091F36C2D7D2D8E2D9F2D1F910F91FF909A
:10093000EF90DF90CF90089560E070E080E090E06D
:100940001F910F91FF90EF90DF90CF900895CF937C
:10095000DF9300D01F92CDB7DEB7789484B5826064
:1009600084BD84B5816084BD85B5826085BD85B553
:10097000816085BD80916E00816080936E001092D1
:10098000810080918100826080938100809181004C
:1009900081608093810080918000816080938000DD
:1009A0008091B10084608093B1008091B00081603B
:1009B0008093B00080917A00846080937A00809167
:1009C0007A00826080937A0080917A0081608093BF
:1009D0007A0080917A00806880937A001092C1003A
:1009E000E0911C03F0911D0382E08083E0911803E5
:1009F000F09119031082E0911A03F0911B038FEC20
:100A0000808310922403E0912003F091210386E07B
:100A10008083E0911E03F0911F03808180618083B9
:100A2000E0911E03F0911F03808188608083E09134
:100A30001E03F0911F03808180688083E0911E0374
:100A4000F0911F0380818F7D80831092800082EC63
:100A500080938100E1EBF0E02491EDE9F0E08491F6
:100A60008823C9F090E0880F991FFC01E057FF4FE1
:100A700065917491FC01EA57FF4FA591B4919FB71E
:100A8000F894FB0180812095822380838C91E22F52
:100A9000E823EC939FBF80E286BB80936F0088E2DF
:100AA00091E00E944F020DED11E080E0282E80E0E1
:100AB000382E80910A0390910B03893E93400CF4E9
:100AC000BDC063E070E082E090E00E945C02782E9E
:100AD000692E66E070E085E090E00E945C02582E8E
:100AE000492E84E00E94F8015C0187E00E94F80131
:100AF0006C0188E0E4E0F1E0A2E0B1E001900D9249
:100B00008A95E1F770920A0160920B0182E091E010
:100B10000E94A7004C0188E0EEE0F1E0ACE0B1E01B
:100B200001900D928A95E1F75092140140921501BF
:100B30008CE091E00E94A7007C0121E0298342E83B
:100B4000841691040CF019829924939452E8E516C6
:100B5000F1040CF0912C82E1E7EBF1E0A5EBB1E0C0
:100B600001900D928A95E1F781E090E0AB2811F4B5
:100B700090E080E09093BE018093BD0185EB91E011
:100B80000E948C005C0188248394892B09F4812CB9
:100B900082E1EBECF1E0A9ECB1E001900D928A95D5
:100BA000E1F781E090E0CD2811F490E080E09093AF
:100BB000D2018093D10189EC91E00E948C00DD2468
:100BC000D394009709F4D12CE2E8EE16F1040CF06E
:100BD00045C0AB2811F4892BE9F161E08AE00E945D
:100BE000210282E391E00E944F02F1E0F0930903B9
:100BF0001F929F921F92DF921F928F921F922981C4
:100C00002F934F925F926F927F9242E651E05F93F3
:100C10004F931F930F930E949D078DED91E00E94CB
:100C20004F0289E991E00E944F0210920B0310924B
:100C30000A030FB6F894DEBF0FBECDBF21143104F6
:100C400009F437CF0E942C01882309F432CF0E9487
:100C500000002FCF809109038111CACF60E08AE0A4
:100C60000E9421028AE491E00E944F02109209033F
:100C7000BFCFECE0F3E01382128288EE93E0A0E0B5
:100C8000B0E084839583A683B7838AE191E0918362
:100C9000808385EC90E09587848784EC90E097874B
:100CA000868780EC90E0918B808B81EC90E0938B39
:100CB000828B82EC90E0958B848B86EC90E0978B16
:100CC000868B118E128E138E148E08950E946D06DF
:100CD0006894B1110C94FC0608950E94E10688F016
:100CE0009F5798F0B92F9927B751B0F0E1F0660FF0
:100CF000771F881F991F1AF0BA95C9F714C0B13031
:100D000091F00E94FB06B1E008950C94FB06672F5A
:100D1000782F8827B85F39F0B93FCCF3869577955F
:100D20006795B395D9F73EF4909580957095619548
:100D30007F4F8F4F9F4F0895E89409C097FB3EF473
:100D400090958095709561957F4F8F4F9F4F992318
:100D5000A9F0F92F96E9BB279395F6958795779596
:100D60006795B795F111F8CFFAF4BB0F11F460FF56
:100D70001BC06F5F7F4F8F4F9F4F16C0882311F0AE
:100D800096E911C0772321F09EE8872F762F05C0C2
:100D9000662371F096E8862F70E060E02AF09A955D
:100DA000660F771F881FDAF7880F9695879597F952
:100DB000089557FD9058440F551F59F05F3F71F04B
:100DC0004795880F97FB991F61F09F3F79F08795B2
:100DD0000895121613061406551FF2CF4695F1DF3B
:100DE00008C0161617061806991FF1CF86957105CB
:100DF000610508940895E894BB2766277727CB01FF
:100E000097F908950E9415070C9486070E947807A9
:100E100038F00E947F0720F0952311F00C946F07A3
:100E20000C94750711240C94FC060E94D90670F3EB
:100E3000959FC1F3950F50E0551F629FF001729F7F
:100E4000BB27F00DB11D639FAA27F00DB11DAA1F8E
:100E5000649F6627B00DA11D661F829F2227B00DDB
:100E6000A11D621F739FB00DA11D621F839FA00D66
:100E7000611D221F749F3327A00D611D231F849FB6
:100E8000600D211D822F762F6A2F11249F5750400D
:100E90009AF0F1F088234AF0EE0FFF1FBB1F661F88
:100EA000771F881F91505040A9F79E3F510580F051
:100EB0000C946F070C94FC065F3FE4F3983ED4F368
:100EC000869577956795B795F795E7959F5FC1F7F5
:100ED000FE2B880F911D9695879597F9089597F9A0
:100EE0009F6780E870E060E008959FEF80EC0895D0
:100EF00000240A94161617061806090608950024F9
:100F00000A9412161306140605060895092E039472
:100F1000000C11F4882352F0BB0F40F4BF2B11F4E6
:100F200060FF04C06F5F7F4F8F4F9F4F0895EE0F9C
:100F3000FF1F0590F491E02D0994AEE0B0E0E3EAE4
:100F4000F7E00C944C0A0D891E8986E08C831A8385
:100F500009838FEF9FE79E838D83AE01475E5F4FCE
:100F60006F89788DCE0101960E94C0072F81388548
:100F7000020F131FF80110822E96E4E00C94680A09
:100F8000ABE0B0E0E6ECF7E00C943E0A7C013B01FC
:100F90008A01FC0117821682838181FFC8C1CE01BC
:100FA00001965C01F7019381F30193FD859193FF15
:100FB00081913F01882309F453C1853239F493FDAF
:100FC000859193FF81913F01853229F4B70190E02B
:100FD0000E94B009E7CF912C212C312CFFE1F315B1
:100FE00038F08B3211F190F4803209F1833229F11B
:100FF00037FC3CC020ED280F2A3050F536FE20C0CB
:101000008AE0989E200D1124922E06C08D3291F018
:10101000803371F7689430F8F30193FD859193FF65
:1010200081913F018111DACF21C0689431F8689431
:1010300032F8F2CF689433F8EFCF689434F8ECCFFD
:10104000EAE02E9E200D1124222E689435F8E4CF7C
:101050008E3229F436FC04C1689436F8DDCF8C3624
:1010600019F4689437F8D8CF8836B1F2982F9F7D5D
:1010700095549330E0F08336A1F18337C1F1833585
:1010800009F063C02801F2E04F0E511CF801C08046
:10109000D180692D70E036FC02C06FEF7FEFC60192
:1010A0000E949A094C01689437F882010AC00C5FCB
:1010B0001F4FFFE3F98388248394912C6501E89402
:1010C00037F833FE2DC0522C8114910471F5552050
:1010D00009F468CFB70180E290E00E94B0095A9409
:1010E000F6CFF801808189830E5F1F4FE4CF28017E
:1010F000F2E04F0E511CF801C080D180692D70E0E4
:1011000036FC02C06FEF7FEFC6010E94A5094C01BB
:101110008201D5CFB70180E290E00E94B0092A9405
:101120002814190409F0B0F7CECFF60137FC8591E9
:1011300037FE81916F01B70190E00E94B009511014
:101140005A94F1E08F1A9108BFCF843619F089368E
:1011500009F077C0F80137FE6BC060817181828130
:1011600093810C5F1F4FF32DFF763F2E97FF09C031
:1011700090958095709561957F4F8F4F9F4F6894A4
:1011800037F82AE030E0A5010E94E009C82ECA180D
:101190008C2C432C36FE0CC0E89440F8C91440F463
:1011A00034FE05C032FC03C0F32DFE7E4F2E892C89
:1011B00044FE95C0FE01EC0DF11D8081803309F0E5
:1011C00087C0242D297E422E842D8870582E43FC02
:1011D00095C040FE8FC09C2C821418F42C0C922CCD
:1011E000981844FE91C0B70180E390E00E94B009D6
:1011F00042FE09C088E790E041FE02C088E590E029
:10120000B7010E94B009C91408F48AC0CA94D12C4D
:101210009FEFC91AD90ACA0CDB1CF60182916F0133
:10122000B70190E00E94B009AC14BD04B1F74FCFF4
:1012300060817181072E000C880B990B0E5F1F4F88
:1012400092CFD32CE894D4F82AE030E0853739F1F6
:10125000232D297FD22E8F3601F148F48835A9F04D
:10126000F701868197812B96E2E10C945A0A803728
:1012700049F08837A9F7D4FE02C06894D2F820E17B
:1012800030E00DC06894D4F8F6CF34FE03C0822F4E
:101290008660D82E20E132E002C028E030E0F8017C
:1012A000D7FE0FC060817181828193810C5F1F4FD7
:1012B000A5010E94E009C82ECA183D2CE89437F811
:1012C00067CF6081718190E080E00E5F1F4FF0CFAB
:1012D00042FC02C0839478CF8394839475CF842D8D
:1012E000867809F471CFF6CFB70180E290E00E94D2
:1012F000B00983948214C0F3512C73CF522C581828
:10130000821408F46ECFF8CF842D867809F47BCF51
:101310008BE241FE80E247FC8DE2B70190E071CFA5
:10132000B70180E390E00E94B0099A946CCF8FEFF0
:101330009FEF99CFFC010590615070400110D8F7E4
:10134000809590958E0F9F1F0895FC01615070400D
:1013500001900110D8F7809590958E0F9F1F0895EA
:101360000F931F93CF93DF93182F092FEB018B81DE
:1013700081FD09C01FEF0FEF812F902FDF91CF91DB
:101380001F910F91089582FF14C02E813F818C819F
:101390009D81281739073CF4E881F981CF01019636
:1013A0009983888310838E819F8101969F838E838A
:1013B000E3CFE885F985812F0995892BA1F3DACF51
:1013C000FA01AA27283051F1203181F1E8946F9376
:1013D0006E7F6E5F7F4F8F4F9F4FAF4FB1E03ED01C
:1013E000B4E03CD0670F781F891F9A1FA11D680FBA
:1013F000791F8A1F911DA11D6A0F711D811D911DED
:10140000A11D20D009F468943F912AE0269F112461
:101410003019305D3193DEF6CF010895462F4770C5
:10142000405D4193B3E00FD0C9F7F6CF462F4F7020
:10143000405D4A3318F0495D31FD4052419302D07E
:10144000A9F7EACFB4E0A695979587957795679524
:10145000BA95C9F700976105710508959B01AC0124
:101460000A2E06945795479537952795BA95C9F74B
:10147000620F731F841F951FA01D08952F923F9226
:101480004F925F926F927F928F929F92AF92BF9294
:10149000CF92DF92EF92FF920F931F93CF93DF9340
:1014A000CDB7DEB7CA1BDB0B0FB6F894DEBF0FBE9D
:1014B000CDBF09942A88398848885F846E847D84EA
:1014C0008C849B84AA84B984C884DF80EE80FD80EC
:1014D0000C811B81AA81B981CE0FD11D0FB6F89462
:0E14E000DEBF0FBECDBFED010895F894FFCF23
:1014EE001B41E7030000000000000000E7030000BE
:1014FE00000000000000000000006201C200EF00CA
:10150E00AF012001FE0012015354415254494E477F
:10151E000A004C6967687473206F66662C207374BA
:10152E00617465204C4F57200A004C6967687473CC
:10153E00206F6E2C207374617465204849474820D3
:10154E000A000A53315F646973743A2025642009D6
:10155E002053335F646973743A202564200A6C61EA
:10156E0067733A200A09092564207C202564207CB3
:0C157E00202564207C202564000D0A005C
:00000001FF
